{
  "contractName": "FlipBet",
  "abi": [
    {
      "inputs": [],
      "stateMutability": "payable",
      "type": "constructor",
      "payable": true
    },
    {
      "inputs": [],
      "name": "contractBalance",
      "outputs": [
        {
          "internalType": "uint256",
          "name": "",
          "type": "uint256"
        }
      ],
      "stateMutability": "view",
      "type": "function",
      "constant": true
    },
    {
      "inputs": [],
      "name": "random",
      "outputs": [
        {
          "internalType": "uint256",
          "name": "",
          "type": "uint256"
        }
      ],
      "stateMutability": "view",
      "type": "function",
      "constant": true
    },
    {
      "inputs": [
        {
          "internalType": "uint256",
          "name": "amt",
          "type": "uint256"
        }
      ],
      "name": "sendFundToPlayer",
      "outputs": [],
      "stateMutability": "nonpayable",
      "type": "function"
    },
    {
      "inputs": [],
      "name": "sendFundToContract",
      "outputs": [],
      "stateMutability": "payable",
      "type": "function",
      "payable": true
    },
    {
      "inputs": [],
      "name": "getContractBalance",
      "outputs": [
        {
          "internalType": "uint256",
          "name": "",
          "type": "uint256"
        }
      ],
      "stateMutability": "view",
      "type": "function",
      "constant": true
    }
  ],
  "bytecode": "0x608060405261001261001760201b60201c565b610098565b3373ffffffffffffffffffffffffffffffffffffffff1631341115610087576040517f08c379a00000000000000000000000000000000000000000000000000000000081526004018080602001828103825260238152602001806103c06023913960400191505060405180910390fd5b346000808282540192505081905550565b610319806100a76000396000f3fe60806040526004361061004a5760003560e01c80635ec01e4d1461004f5780636f9fb98a1461007a5780638b7afe2e146100a5578063acf85131146100d0578063aebb8dcb1461010b575b600080fd5b34801561005b57600080fd5b50610064610115565b6040518082815260200191505060405180910390f35b34801561008657600080fd5b5061008f610158565b6040518082815260200191505060405180910390f35b3480156100b157600080fd5b506100ba610160565b6040518082815260200191505060405180910390f35b3480156100dc57600080fd5b50610109600480360360208110156100f357600080fd5b8101908080359060200190929190505050610166565b005b61011361021a565b005b60006002444260405160200180838152602001828152602001925050506040516020818303038152906040528051906020012060001c8161015257fe5b06905090565b600047905090565b60005481565b6000548111156101c1576040517f08c379a000000000000000000000000000000000000000000000000000000000815260040180806020018281038252602581526020018061029c6025913960400191505060405180910390fd5b3373ffffffffffffffffffffffffffffffffffffffff166108fc829081150290604051600060405180830381858888f19350505050158015610207573d6000803e3d6000fd5b5080600080828254039250508190555050565b3373ffffffffffffffffffffffffffffffffffffffff163134111561028a576040517f08c379a00000000000000000000000000000000000000000000000000000000081526004018080602001828103825260238152602001806102c16023913960400191505060405180910390fd5b34600080828254019250508190555056fe436f6e747261637420646f65736e2774206861766520656e6f7567682062616c616e636521506c6179657220646f65736e2774206861766520656e6f7567682062616c616e636521a2646970667358221220bcab346e5c93d1619e004b17862440b0002eafe7b23397689d3bb5fce7260eee64736f6c634300060c0033506c6179657220646f65736e2774206861766520656e6f7567682062616c616e636521",
  "immutableReferences": {},
  "source": "// SPDX-License-Identifier: smartcontract201\npragma solidity 0.6.12;\n\ncontract FlipBet {\n    uint public contractBalance;\n    \n    constructor() public payable {\n        sendFundToContract();\n    }\n\n    function random() public view returns(uint) {\n        return uint(keccak256(abi.encodePacked(block.difficulty, now))) % 2;\n    }\n\n    function sendFundToPlayer(uint amt) public {\n        require(amt <= contractBalance, \"Contract doesn't have enough balance!\");\n        msg.sender.transfer(amt);\n        contractBalance -= amt;\n    }\n\n    function sendFundToContract() public payable {\n        require(msg.value <= msg.sender.balance, \"Player doesn't have enough balance!\");\n        contractBalance += msg.value;\n    }\n    \n    function getContractBalance() public view returns(uint) {\n        return address(this).balance;\n    }\n}",
  "sourcePath": "/Users/will/Documents/classroom/ethereum_blockchain/ethereum-8/contracts/FlipBet.sol",
  "compiler": {
    "name": "solc",
    "version": "0.6.12+commit.27d51765.Emscripten.clang"
  },
  "schemaVersion": "3.1.0",
  "updatedAt": "2021-04-21T14:31:12.029Z",
  "networkType": "ethereum",
  "devdoc": {
    "kind": "dev",
    "methods": {},
    "version": 1
  },
  "userdoc": {
    "kind": "user",
    "methods": {},
    "version": 1
  }
}